:020000002928AD
:10000600831603139816903083129800831686166B
:10001600861383128C1E12281A08F0000C2808007A
:10002600831203131A08F200981C1B2818121816BC
:0A0036007208F1007108F0000800E4
:100040000030831203138C1A0130F1007108F000A4
:020050000800A6
:1000520083160313850186018701831285018601B8
:100062008701193083169900181503208230FC008D
:10007200DD30FD00FD0B3B28FC0B3B28000000009F
:1000820020207008013A031D5F2883168701132080
:100092007008A0007008613A031D50280714200858
:1000A200623A031D552807102008633A031D5A2897
:1000B20087142008643A031D5F28871041286028AE
:02400E00C500EB
:00000001FF
